{
  "contractName": "Iot",
  "abi": [
    {
      "inputs": [],
      "payable": false,
      "stateMutability": "nonpayable",
      "type": "constructor"
    },
    {
      "constant": true,
      "inputs": [],
      "name": "authorizedAddress",
      "outputs": [
        {
          "internalType": "address",
          "name": "",
          "type": "address"
        }
      ],
      "payable": false,
      "stateMutability": "view",
      "type": "function"
    },
    {
      "constant": true,
      "inputs": [],
      "name": "iotcounter",
      "outputs": [
        {
          "internalType": "uint256",
          "name": "",
          "type": "uint256"
        }
      ],
      "payable": false,
      "stateMutability": "view",
      "type": "function"
    },
    {
      "constant": true,
      "inputs": [
        {
          "internalType": "uint256",
          "name": "",
          "type": "uint256"
        }
      ],
      "name": "iotdata",
      "outputs": [
        {
          "internalType": "string",
          "name": "",
          "type": "string"
        }
      ],
      "payable": false,
      "stateMutability": "view",
      "type": "function"
    },
    {
      "constant": false,
      "inputs": [
        {
          "internalType": "string",
          "name": "data",
          "type": "string"
        }
      ],
      "name": "storeIotdata",
      "outputs": [],
      "payable": false,
      "stateMutability": "nonpayable",
      "type": "function"
    },
    {
      "constant": true,
      "inputs": [
        {
          "internalType": "uint256",
          "name": "iotId",
          "type": "uint256"
        }
      ],
      "name": "getIoTdata",
      "outputs": [
        {
          "internalType": "string",
          "name": "",
          "type": "string"
        }
      ],
      "payable": false,
      "stateMutability": "view",
      "type": "function"
    },
    {
      "constant": true,
      "inputs": [],
      "name": "getIotCounter",
      "outputs": [
        {
          "internalType": "uint256",
          "name": "",
          "type": "uint256"
        }
      ],
      "payable": false,
      "stateMutability": "view",
      "type": "function"
    }
  ],
  "bytecode": "0x608060405234801561001057600080fd5b5033600260006101000a81548173ffffffffffffffffffffffffffffffffffffffff021916908373ffffffffffffffffffffffffffffffffffffffff160217905550610625806100616000396000f3fe608060405234801561001057600080fd5b50600436106100625760003560e01c806317b35b2b14610067578063448ebc89146100855780635539d4001461012c57806362f50ef314610176578063a58ea23714610194578063da179d801461023b575b600080fd5b61006f6102b4565b6040518082815260200191505060405180910390f35b6100b16004803603602081101561009b57600080fd5b81019080803590602001909291905050506102ba565b6040518080602001828103825283818151815260200191508051906020019080838360005b838110156100f15780820151818401526020810190506100d6565b50505050905090810190601f16801561011e5780820380516001836020036101000a031916815260200191505b509250505060405180910390f35b61013461036a565b604051808273ffffffffffffffffffffffffffffffffffffffff1673ffffffffffffffffffffffffffffffffffffffff16815260200191505060405180910390f35b61017e610390565b6040518082815260200191505060405180910390f35b6101c0600480360360208110156101aa57600080fd5b810190808035906020019092919050505061039a565b6040518080602001828103825283818151815260200191508051906020019080838360005b838110156102005780820151818401526020810190506101e5565b50505050905090810190601f16801561022d5780820380516001836020036101000a031916815260200191505b509250505060405180910390f35b6102b26004803603602081101561025157600080fd5b810190808035906020019064010000000081111561026e57600080fd5b82018360208201111561028057600080fd5b803590602001918460018302840111640100000000831117156102a257600080fd5b909192939192939050505061044e565b005b60015481565b60006020528060005260406000206000915090508054600181600116156101000203166002900480601f0160208091040260200160405190810160405280929190818152602001828054600181600116156101000203166002900480156103625780601f1061033757610100808354040283529160200191610362565b820191906000526020600020905b81548152906001019060200180831161034557829003601f168201915b505050505081565b600260009054906101000a900473ffffffffffffffffffffffffffffffffffffffff1681565b6000600154905090565b60606000808381526020019081526020016000208054600181600116156101000203166002900480601f0160208091040260200160405190810160405280929190818152602001828054600181600116156101000203166002900480156104425780601f1061041757610100808354040283529160200191610442565b820191906000526020600020905b81548152906001019060200180831161042557829003601f168201915b50505050509050919050565b600260009054906101000a900473ffffffffffffffffffffffffffffffffffffffff1673ffffffffffffffffffffffffffffffffffffffff163373ffffffffffffffffffffffffffffffffffffffff1614610511576040517f08c379a00000000000000000000000000000000000000000000000000000000081526004018080602001828103825260138152602001807f556e617574686f72697a6564206163636573730000000000000000000000000081525060200191505060405180910390fd5b60016000815480929190600101919050555081816000806001548152602001908152602001600020919061054692919061054b565b505050565b828054600181600116156101000203166002900490600052602060002090601f016020900481019282601f1061058c57803560ff19168380011785556105ba565b828001600101855582156105ba579182015b828111156105b957823582559160200191906001019061059e565b5b5090506105c791906105cb565b5090565b6105ed91905b808211156105e95760008160009055506001016105d1565b5090565b9056fea265627a7a723158203aa6e9da47c93abb60fc067bf5e260f9d3709affa4c766c675bc76aee711f80664736f6c63430005100032",
  "source": "// SPDX-License-Identifier: MIT\r\npragma solidity ^0.5.0;\r\n\r\ncontract Iot {\r\n    // Mapping to store string data by a unique identifier\r\n    mapping(uint256 => string) public iotdata;\r\n\r\n    // Counter to generate unique identifiers for each string record\r\n    uint256 public iotcounter;\r\n\r\n    // Address that is authorized to store IoT data\r\n    address public authorizedAddress;\r\n\r\n    // Modifier to restrict access to the storeIotdata function\r\n    modifier onlyAuthorized() {\r\n        require(msg.sender == authorizedAddress, \"Unauthorized access\");\r\n        _;\r\n    }\r\n\r\n    // Constructor to set the authorized address\r\n    constructor() public {\r\n        authorizedAddress = msg.sender;\r\n    }\r\n\r\n    // Function to store string data, only accessible by the authorized address\r\n    function storeIotdata(string calldata data) external onlyAuthorized {\r\n        // Increment the counter to get a unique identifier\r\n        iotcounter++;\r\n\r\n        // Store the string data in the mapping with the unique identifier\r\n        iotdata[iotcounter] = data;\r\n    }\r\n\r\n    // Function to retrieve string data by identifier\r\n    function getIoTdata(uint256 iotId) external view returns (string memory) {\r\n        // Retrieve the string data by the provided identifier\r\n        return iotdata[iotId];\r\n    }\r\n\r\n    // Function to get the value of iotcounter\r\n    function getIotCounter() external view returns (uint256) {\r\n        return iotcounter;\r\n    }\r\n}\r\n",
  "sourcePath": "C:\\Users\\Yayathipriyan A\\Documents\\IoT final\\contracts\\IoT.sol",
  "compiler": {
    "name": "solc",
    "version": "0.5.16+commit.9c3226ce.Emscripten.clang"
  },
  "schemaVersion": "3.4.16",
  "updatedAt": "2024-03-12T07:54:34.971Z",
  "networkType": "ethereum",
  "devdoc": {
    "methods": {}
  },
  "userdoc": {
    "methods": {}
  }
}